{
  "abi": [
    {
      "inputs": [],
      "stateMutability": "payable",
      "type": "constructor"
    },
    {
      "anonymous": false,
      "inputs": [
        {
          "indexed": false,
          "internalType": "uint8",
          "name": "version",
          "type": "uint8"
        }
      ],
      "name": "Initialized",
      "type": "event"
    },
    {
      "anonymous": false,
      "inputs": [
        {
          "indexed": false,
          "internalType": "address",
          "name": "parent",
          "type": "address"
        },
        {
          "indexed": false,
          "internalType": "address",
          "name": "sub",
          "type": "address"
        },
        {
          "indexed": false,
          "internalType": "uint256",
          "name": "amountUsdt",
          "type": "uint256"
        },
        {
          "indexed": false,
          "internalType": "uint256",
          "name": "date",
          "type": "uint256"
        }
      ],
      "name": "MatrixBonus",
      "type": "event"
    },
    {
      "anonymous": false,
      "inputs": [
        {
          "indexed": true,
          "internalType": "address",
          "name": "previousOwner",
          "type": "address"
        },
        {
          "indexed": true,
          "internalType": "address",
          "name": "newOwner",
          "type": "address"
        }
      ],
      "name": "OwnershipTransferred",
      "type": "event"
    },
    {
      "anonymous": false,
      "inputs": [
        {
          "indexed": false,
          "internalType": "address",
          "name": "user",
          "type": "address"
        },
        {
          "indexed": false,
          "internalType": "uint256",
          "name": "id",
          "type": "uint256"
        }
      ],
      "name": "Subcribed",
      "type": "event"
    },
    {
      "anonymous": false,
      "inputs": [
        {
          "indexed": false,
          "internalType": "address",
          "name": "parent",
          "type": "address"
        },
        {
          "indexed": false,
          "internalType": "address",
          "name": "sub",
          "type": "address"
        },
        {
          "indexed": false,
          "internalType": "uint256",
          "name": "amountUsdt",
          "type": "uint256"
        },
        {
          "indexed": false,
          "internalType": "uint256",
          "name": "date",
          "type": "uint256"
        }
      ],
      "name": "SubcriptionBonus",
      "type": "event"
    },
    {
      "anonymous": false,
      "inputs": [
        {
          "indexed": false,
          "internalType": "address",
          "name": "user",
          "type": "address"
        },
        {
          "indexed": false,
          "internalType": "bytes32",
          "name": "codeRef",
          "type": "bytes32"
        }
      ],
      "name": "eAddHeadRef",
      "type": "event"
    },
    {
      "inputs": [
        {
          "internalType": "bytes32",
          "name": "codeRef",
          "type": "bytes32"
        }
      ],
      "name": "AddHeadRef",
      "outputs": [],
      "stateMutability": "nonpayable",
      "type": "function"
    },
    {
      "inputs": [],
      "name": "GetCodeRef",
      "outputs": [
        {
          "internalType": "bytes32",
          "name": "",
          "type": "bytes32"
        }
      ],
      "stateMutability": "view",
      "type": "function"
    },
    {
      "inputs": [],
      "name": "PaySub",
      "outputs": [
        {
          "internalType": "bool",
          "name": "",
          "type": "bool"
        }
      ],
      "stateMutability": "nonpayable",
      "type": "function"
    },
    {
      "inputs": [],
      "name": "Register",
      "outputs": [
        {
          "internalType": "bool",
          "name": "",
          "type": "bool"
        }
      ],
      "stateMutability": "nonpayable",
      "type": "function"
    },
    {
      "inputs": [
        {
          "internalType": "address",
          "name": "_masterPool",
          "type": "address"
        }
      ],
      "name": "SetMasterPool",
      "outputs": [],
      "stateMutability": "nonpayable",
      "type": "function"
    },
    {
      "inputs": [
        {
          "internalType": "address",
          "name": "_usdt",
          "type": "address"
        }
      ],
      "name": "SetUsdt",
      "outputs": [],
      "stateMutability": "nonpayable",
      "type": "function"
    },
    {
      "inputs": [
        {
          "internalType": "uint256",
          "name": "",
          "type": "uint256"
        }
      ],
      "name": "comDirectRate",
      "outputs": [
        {
          "internalType": "uint256",
          "name": "",
          "type": "uint256"
        }
      ],
      "stateMutability": "view",
      "type": "function"
    },
    {
      "inputs": [
        {
          "internalType": "address",
          "name": "",
          "type": "address"
        }
      ],
      "name": "currentMembersForLevelUp",
      "outputs": [
        {
          "internalType": "uint256",
          "name": "",
          "type": "uint256"
        }
      ],
      "stateMutability": "view",
      "type": "function"
    },
    {
      "inputs": [],
      "name": "day",
      "outputs": [
        {
          "internalType": "uint32",
          "name": "",
          "type": "uint32"
        }
      ],
      "stateMutability": "view",
      "type": "function"
    },
    {
      "inputs": [
        {
          "internalType": "address",
          "name": "_usdt",
          "type": "address"
        },
        {
          "internalType": "address",
          "name": "_masterPool",
          "type": "address"
        },
        {
          "internalType": "address",
          "name": "_matrixtree",
          "type": "address"
        }
      ],
      "name": "initialize",
      "outputs": [],
      "stateMutability": "nonpayable",
      "type": "function"
    },
    {
      "inputs": [
        {
          "internalType": "address",
          "name": "",
          "type": "address"
        }
      ],
      "name": "lineMatrix",
      "outputs": [
        {
          "internalType": "address",
          "name": "",
          "type": "address"
        }
      ],
      "stateMutability": "view",
      "type": "function"
    },
    {
      "inputs": [
        {
          "internalType": "address",
          "name": "",
          "type": "address"
        },
        {
          "internalType": "uint32",
          "name": "",
          "type": "uint32"
        }
      ],
      "name": "mDailyMembers",
      "outputs": [
        {
          "internalType": "uint256",
          "name": "",
          "type": "uint256"
        }
      ],
      "stateMutability": "view",
      "type": "function"
    },
    {
      "inputs": [
        {
          "internalType": "bytes32",
          "name": "",
          "type": "bytes32"
        }
      ],
      "name": "mRefCode",
      "outputs": [
        {
          "internalType": "address",
          "name": "",
          "type": "address"
        }
      ],
      "stateMutability": "view",
      "type": "function"
    },
    {
      "inputs": [
        {
          "internalType": "address",
          "name": "",
          "type": "address"
        }
      ],
      "name": "mSub",
      "outputs": [
        {
          "internalType": "bool",
          "name": "",
          "type": "bool"
        }
      ],
      "stateMutability": "view",
      "type": "function"
    },
    {
      "inputs": [
        {
          "internalType": "address",
          "name": "",
          "type": "address"
        }
      ],
      "name": "mSubInfo",
      "outputs": [
        {
          "internalType": "bytes32",
          "name": "codeRef",
          "type": "bytes32"
        }
      ],
      "stateMutability": "view",
      "type": "function"
    },
    {
      "inputs": [],
      "name": "masterPool",
      "outputs": [
        {
          "internalType": "address",
          "name": "",
          "type": "address"
        }
      ],
      "stateMutability": "view",
      "type": "function"
    },
    {
      "inputs": [],
      "name": "matrixtree",
      "outputs": [
        {
          "internalType": "contract MatrixTree",
          "name": "",
          "type": "address"
        }
      ],
      "stateMutability": "view",
      "type": "function"
    },
    {
      "inputs": [],
      "name": "maxLineForMatrixBonus",
      "outputs": [
        {
          "internalType": "uint256",
          "name": "",
          "type": "uint256"
        }
      ],
      "stateMutability": "view",
      "type": "function"
    },
    {
      "inputs": [
        {
          "internalType": "address",
          "name": "",
          "type": "address"
        }
      ],
      "name": "mtotalMember",
      "outputs": [
        {
          "internalType": "uint256",
          "name": "",
          "type": "uint256"
        }
      ],
      "stateMutability": "view",
      "type": "function"
    },
    {
      "inputs": [],
      "name": "owner",
      "outputs": [
        {
          "internalType": "address",
          "name": "",
          "type": "address"
        }
      ],
      "stateMutability": "view",
      "type": "function"
    },
    {
      "inputs": [
        {
          "internalType": "address",
          "name": "",
          "type": "address"
        }
      ],
      "name": "ranks",
      "outputs": [
        {
          "internalType": "uint8",
          "name": "",
          "type": "uint8"
        }
      ],
      "stateMutability": "view",
      "type": "function"
    },
    {
      "inputs": [],
      "name": "renounceOwnership",
      "outputs": [],
      "stateMutability": "nonpayable",
      "type": "function"
    },
    {
      "inputs": [
        {
          "internalType": "address",
          "name": "_matrixtree",
          "type": "address"
        }
      ],
      "name": "setMatrixTree",
      "outputs": [],
      "stateMutability": "nonpayable",
      "type": "function"
    },
    {
      "inputs": [
        {
          "internalType": "uint256",
          "name": "_registerFee",
          "type": "uint256"
        }
      ],
      "name": "setRegisterFee",
      "outputs": [],
      "stateMutability": "nonpayable",
      "type": "function"
    },
    {
      "inputs": [
        {
          "internalType": "uint256",
          "name": "_subFee",
          "type": "uint256"
        }
      ],
      "name": "setSubFee",
      "outputs": [],
      "stateMutability": "nonpayable",
      "type": "function"
    },
    {
      "inputs": [
        {
          "internalType": "uint256",
          "name": "",
          "type": "uint256"
        }
      ],
      "name": "subRequired",
      "outputs": [
        {
          "internalType": "uint256",
          "name": "",
          "type": "uint256"
        }
      ],
      "stateMutability": "view",
      "type": "function"
    },
    {
      "inputs": [
        {
          "internalType": "address",
          "name": "",
          "type": "address"
        }
      ],
      "name": "totalMatrixBonus",
      "outputs": [
        {
          "internalType": "uint256",
          "name": "",
          "type": "uint256"
        }
      ],
      "stateMutability": "view",
      "type": "function"
    },
    {
      "inputs": [],
      "name": "totalMatrixPayment",
      "outputs": [
        {
          "internalType": "uint256",
          "name": "",
          "type": "uint256"
        }
      ],
      "stateMutability": "view",
      "type": "function"
    },
    {
      "inputs": [
        {
          "internalType": "uint256",
          "name": "",
          "type": "uint256"
        }
      ],
      "name": "totalMaxMembers1BranchToRankUp",
      "outputs": [
        {
          "internalType": "uint256",
          "name": "",
          "type": "uint256"
        }
      ],
      "stateMutability": "view",
      "type": "function"
    },
    {
      "inputs": [
        {
          "internalType": "uint256",
          "name": "",
          "type": "uint256"
        }
      ],
      "name": "totalMemberF1RequiedToRankUps",
      "outputs": [
        {
          "internalType": "uint256",
          "name": "",
          "type": "uint256"
        }
      ],
      "stateMutability": "view",
      "type": "function"
    },
    {
      "inputs": [
        {
          "internalType": "uint256",
          "name": "",
          "type": "uint256"
        }
      ],
      "name": "totalMemberRequiedToRankUps",
      "outputs": [
        {
          "internalType": "uint256",
          "name": "",
          "type": "uint256"
        }
      ],
      "stateMutability": "view",
      "type": "function"
    },
    {
      "inputs": [
        {
          "internalType": "address",
          "name": "",
          "type": "address"
        }
      ],
      "name": "totalSubcriptionBonus",
      "outputs": [
        {
          "internalType": "uint256",
          "name": "",
          "type": "uint256"
        }
      ],
      "stateMutability": "view",
      "type": "function"
    },
    {
      "inputs": [],
      "name": "totalSubscriptionPayment",
      "outputs": [
        {
          "internalType": "uint256",
          "name": "",
          "type": "uint256"
        }
      ],
      "stateMutability": "view",
      "type": "function"
    },
    {
      "inputs": [],
      "name": "totalUser",
      "outputs": [
        {
          "internalType": "uint256",
          "name": "",
          "type": "uint256"
        }
      ],
      "stateMutability": "view",
      "type": "function"
    },
    {
      "inputs": [
        {
          "internalType": "address",
          "name": "newOwner",
          "type": "address"
        }
      ],
      "name": "transferOwnership",
      "outputs": [],
      "stateMutability": "nonpayable",
      "type": "function"
    },
    {
      "inputs": [],
      "name": "usdt",
      "outputs": [
        {
          "internalType": "address",
          "name": "",
          "type": "address"
        }
      ],
      "stateMutability": "view",
      "type": "function"
    },
    {
      "inputs": [],
      "name": "usdtDecimal",
      "outputs": [
        {
          "internalType": "uint256",
          "name": "",
          "type": "uint256"
        }
      ],
      "stateMutability": "view",
      "type": "function"
    }
  ],
  "bytecode": {
    "object": "0x61016060405260006080908152600260a052601460c052606460e0526101f4610100526109c46101205261c3506101405262000040906077906007620001d7565b506040805160e081018252600080825260208201819052600a92820192909252601e60608201526064608082015260a0810182905260c08101919091526200008d9060789060076200022d565b506040805160e0810182526000808252602082018190526003928201839052606082018390526080820183905260a082019290925260c0810191909152620000da9060799060076200022d565b506040805160e08101825260008082526020820181905291810191909152601e6060820152609660808201526101f460a082015261271060c08201526200012690607a906007620001d7565b5060408051610140810182526101f481526064602082015260329181018290526060810191909152601e6080820152601460a0820181905260c0820152600a60e08201819052610100820181905261012082018190526200018a91607b91620001d7565b506019607c55620f4240607d819055620001a690602862000287565b607e55607d54620001b990600a62000287565b607f556080805463ffffffff19166001179055600f608355620002b3565b8280548282559060005260206000209081019282156200021b579160200282015b828111156200021b578251829061ffff16905591602001919060010190620001f8565b506200022992915062000270565b5090565b8280548282559060005260206000209081019282156200021b579160200282015b828111156200021b578251829060ff169055916020019190600101906200024e565b5b8082111562000229576000815560010162000271565b8082028115828204841417620002ad57634e487b7160e01b600052601160045260246000fd5b92915050565b61280c80620002c36000396000f3fe608060405234801561001057600080fd5b50600436106102275760003560e01c806392be2ab811610130578063c0c53b8b116100b8578063ddcd64081161007c578063ddcd640814610547578063e1604b701461055a578063e610e46d14610563578063f2fde38b14610576578063f7bd82361461058957600080fd5b8063c0c53b8b146104b8578063c70d6f06146104cb578063d2057399146104f6578063d6cf2f11146104fe578063d9796fd11461052757600080fd5b8063a8b90f3f116100ff578063a8b90f3f1461046d578063ab36667f14610476578063b106b0c914610489578063b1dd70d314610492578063b4bf14c6146104a557600080fd5b806392be2ab8146104145780639b121eac146104275780639f7bb6c71461043a578063a559934e1461045a57600080fd5b80636dd0f022116101b35780637b76ac91116101825780637b76ac91146103985780637dcdac8a146103bd5780638c7ab1d7146103d05780638da5cb5b146103e357806391eea25f146103f457600080fd5b80636dd0f02214610361578063715018a61461037457806372d0470e1461037c578063795b5cd41461038f57600080fd5b80632f48ab7d116101fa5780632f48ab7d146102ed578063362efc3d1461030057806346c83aab1461030957806367574cb1146103295780636a2aab971461034c57600080fd5b80630763872e1461022c578063081fc5791461025f57806319e5bf3a146102a057806325691de4146102b8575b600080fd5b61024c61023a3660046124e2565b60716020526000908152604090205481565b6040519081526020015b60405180910390f35b61028861026d366004612506565b606a602052600090815260409020546001600160a01b031681565b6040516001600160a01b039091168152602001610256565b6102a8610591565b6040519015158152602001610256565b6102db6102c63660046124e2565b60696020526000908152604090205460ff1681565b60405160ff9091168152602001610256565b606554610288906001600160a01b031681565b61024c607d5481565b61024c6103173660046124e2565b60766020526000908152604090205481565b6102a86103373660046124e2565b60736020526000908152604090205460ff1681565b61035f61035a3660046124e2565b610741565b005b61024c61036f366004612506565b61076b565b61035f61078c565b61024c61038a366004612506565b6107a0565b61024c60815481565b6080546103a89063ffffffff1681565b60405163ffffffff9091168152602001610256565b61024c6103cb366004612506565b6107b0565b606654610288906001600160a01b031681565b6033546001600160a01b0316610288565b61024c6104023660046124e2565b60756020526000908152604090205481565b61035f610422366004612506565b6107c0565b606754610288906001600160a01b031681565b61024c6104483660046124e2565b606b6020526000908152604090205481565b61035f6104683660046124e2565b6107cd565b61024c60835481565b61024c610484366004612506565b6107f7565b61024c60825481565b61035f6104a0366004612506565b610807565b61035f6104b3366004612506565b610814565b61035f6104c636600461251f565b610957565b61024c6104d936600461256a565b607460209081526000928352604080842090915290825290205481565b61024c610c78565b61028861050c3660046124e2565b606f602052600090815260409020546001600160a01b031681565b61024c6105353660046124e2565b60726020526000908152604090205481565b61035f6105553660046124e2565b610cf0565b61024c60685481565b61024c610571366004612506565b610d1a565b61035f6105843660046124e2565b610d2a565b6102a8610da3565b3360009081526073602052604081205460ff16156105e35760405162461bcd60e51b815260206004820152600a602482015269149959da5cdd195c995960b21b60448201526064015b60405180910390fd5b6000607f54607e546105f591906125c2565b6065546040516370a0823160e01b815233600482015291925082916001600160a01b03909116906370a0823190602401602060405180830381865afa158015610642573d6000803e3d6000fd5b505050506040513d601f19601f8201168201806040525081019061066691906125d5565b10156106a65760405162461bcd60e51b815260206004820152600f60248201526e496e76616c69642042616c616e636560881b60448201526064016105da565b6065546066546040516323b872dd60e01b81523360048201526001600160a01b039182166024820152604481018490529116906323b872dd906064016020604051808303816000875af1158015610701573d6000803e3d6000fd5b505050506040513d601f19601f8201168201806040525081019061072591906125ee565b506107303382610f42565b610739336110cb565b600191505090565b61074961127d565b606780546001600160a01b0319166001600160a01b0392909216919091179055565b607a818154811061077b57600080fd5b600091825260209091200154905081565b61079461127d565b61079e60006112d7565b565b6079818154811061077b57600080fd5b6078818154811061077b57600080fd5b6107c861127d565b607e55565b6107d561127d565b606680546001600160a01b0319166001600160a01b0392909216919091179055565b6077818154811061077b57600080fd5b61080f61127d565b607f55565b3360009081526073602052604090205460ff161561087f5760405162461bcd60e51b815260206004820152602260248201527f4d6574614e6f64653a204f6e6c7920666f72206e6f6e2d737562736372696265604482015261727360f01b60648201526084016105da565b6000818152606a60205260409020546001600160a01b03166108e35760405162461bcd60e51b815260206004820152601f60248201527f4d6574614e6f64653a20496e76616c696420526566666572616c20436f64650060448201526064016105da565b6000818152606a602090815260408083205433808552606e84529382902080546001600160a01b0319166001600160a01b0390921691909117905580519283529082018390527f3676d068c24ded926804a731778cd5f0ef23775811e1df9910002bcab2d1c066910160405180910390a150565b600054610100900460ff16158080156109775750600054600160ff909116105b806109915750303b158015610991575060005460ff166001145b6109f45760405162461bcd60e51b815260206004820152602e60248201527f496e697469616c697a61626c653a20636f6e747261637420697320616c72656160448201526d191e481a5b9a5d1a585b1a5e995960921b60648201526084016105da565b6000805460ff191660011790558015610a17576000805461ff0019166101001790555b606580546001600160a01b038087166001600160a01b031992831617909255606680548684169083161790556067805492851692909116919091179055610a5c611329565b6040805160e0810182526000815260026020820152601491810191909152606460608201526101f460808201526109c460a082015261c35060c0820152610aa7906077906007612427565b506040805160e081018252600080825260208201819052600a92820192909252601e60608201526064608082015260a0810182905260c0810191909152610af2906078906007612478565b506040805160e0810182526000808252602082018190526003928201839052606082018390526080820183905260a082019290925260c0810191909152610b3d906079906007612478565b506040805160e08101825260008082526020820181905291810191909152601e6060820152609660808201526101f460a082015261271060c0820152610b8790607a906007612427565b50604080516101408101825260328152600a602082018190526005928201839052606082019290925260036080820152600260a0820181905260c0820152600160e082018190526101008201819052610120820152610be991607b9190612478565b506019607c55620f4240607d819055610c03906028612610565b607e55607d54610c1490600a612610565b607f556080805463ffffffff19166001179055600f6083558015610c72576000805461ff0019169055604051600181527f7f26b83ff96e1f2b6a682f133852f6798a09c465da95921460cefb38474024989060200160405180910390a15b50505050565b3360009081526073602052604081205460ff161515600114610cdc5760405162461bcd60e51b815260206004820152601f60248201527f4d6574614e6f64653a20506c656173652053756263726962652046697273740060448201526064016105da565b50336000908152606b602052604090205490565b610cf861127d565b606580546001600160a01b0319166001600160a01b0392909216919091179055565b607b818154811061077b57600080fd5b610d3261127d565b6001600160a01b038116610d975760405162461bcd60e51b815260206004820152602660248201527f4f776e61626c653a206e6577206f776e657220697320746865207a65726f206160448201526564647265737360d01b60648201526084016105da565b610da0816112d7565b50565b3360009081526073602052604081205460ff161515600114610e005760405162461bcd60e51b815260206004820152601660248201527513995959081d1bc81c9959da5cdd195c88199a5c9cdd60521b60448201526064016105da565b607f546065546040516370a0823160e01b81523360048201526001600160a01b03909116906370a0823190602401602060405180830381865afa158015610e4b573d6000803e3d6000fd5b505050506040513d601f19601f82011682018060405250810190610e6f91906125d5565b1015610eaf5760405162461bcd60e51b815260206004820152600f60248201526e496e76616c69642042616c616e636560881b60448201526064016105da565b606554606654607f546040516323b872dd60e01b81523360048201526001600160a01b03928316602482015260448101919091529116906323b872dd906064016020604051808303816000875af1158015610f0e573d6000803e3d6000fd5b505050506040513d601f19601f82011682018060405250810190610f3291906125ee565b50610f3c33611358565b50600190565b60688054906000610f5283612627565b90915550506001600160a01b038281166000818152607360209081526040808320805460ff1916600117905580518083018252606854606089901b6bffffffffffffffffffffffff1916828401524260548301524460748301526094808301919091528251808303909101815260b4820183528051908401208152848452606b83528184209051908190558352606a825280832080546001600160a01b03191685179055928252606e9052205416801561106b576001600160a01b038082166000818152606c6020908152604080832080546001810182559084528284200180549589166001600160a01b031996871681179091558352606e909152902080549092161790556110628383611562565b61106b8161178f565b6001600160a01b038316600081815260696020908152604091829020805460ff191690556068548251938452908301527fd704421fb24a7a835d4aa951912e468c80f0865ac478ceadce8cc62dfca7c669910160405180910390a1505050565b606754604051636090c2df60e01b81526001600160a01b03838116600483015290911690636090c2df906024016020604051808303816000875af1158015611117573d6000803e3d6000fd5b505050506040513d601f19601f8201168201806040525081019061113b91906125ee565b5060675460405163422b794560e11b81526001600160a01b0383811660048301526000921690638456f28a90602401602060405180830381865afa158015611187573d6000803e3d6000fd5b505050506040513d601f19601f820116820180604052508101906111ab91906125d5565b905060018111156112795760675460405163bc31b1f560e01b81526001600160a01b038481166004830152600092169063bc31b1f590602401602060405180830381865afa158015611201573d6000803e3d6000fd5b505050506040513d601f19601f820116820180604052508101906112259190612640565b6001600160a01b039081166000818152606d6020908152604080832080546001810182559084528284200180549589166001600160a01b031996871681179091558352606f90915290208054909216179055505b5050565b6033546001600160a01b0316331461079e5760405162461bcd60e51b815260206004820181905260248201527f4f776e61626c653a2063616c6c6572206973206e6f7420746865206f776e657260448201526064016105da565b603380546001600160a01b038381166001600160a01b0319831681179093556040519116919082907f8be0079c531659141344cd1fd0a4f28419497f9722a3daafe3b4186f6b6457e090600090a35050565b600054610100900460ff166113505760405162461bcd60e51b81526004016105da9061265d565b61079e6117d3565b6001600160a01b038082166000908152606f602052604081205490911690829080805b60835481101561155a576001600160a01b0385161561155a576113a8856113a38360016125c2565b611803565b1561152a576103e8607f54607c546113c09190612610565b6113ca91906126a8565b606654604051636cf50d9160e11b81526001600160a01b0388811660048301526024820184905292955091169063d9ea1b22906044016020604051808303816000875af115801561141f573d6000803e3d6000fd5b505050506040513d601f19601f8201168201806040525081019061144391906125ee565b9150816114925760405162461bcd60e51b815260206004820152601a60248201527f4661696c6564207472616e7366657220636f6d6d697373696f6e00000000000060448201526064016105da565b6001600160a01b038516600090815260716020526040812080548592906114ba9084906125c2565b9250508190555082608260008282546114d391906125c2565b9091555050604080516001600160a01b038088168252861660208201529081018490524260608201527f70986a38a723ee37450d2884350ac6b1b722e9d5befa6510ffc43055c64962139060800160405180910390a15b6001600160a01b038086166000908152606f6020526040902054169493508061155281612627565b91505061137b565b505050505050565b6001600160a01b038083166000908152606e602052604081205490911690839080805b607b54811015611786576001600160a01b03851615611786576115b2856115ad8360016125c2565b611a51565b1561174d576103e886607b83815481106115ce576115ce6126ca565b90600052602060002001546115e39190612610565b6115ed91906126a8565b606654604051636cf50d9160e11b81526001600160a01b0388811660048301526024820184905292955091169063d9ea1b22906044016020604051808303816000875af1158015611642573d6000803e3d6000fd5b505050506040513d601f19601f8201168201806040525081019061166691906125ee565b9150816116b55760405162461bcd60e51b815260206004820152601a60248201527f4661696c6564207472616e7366657220636f6d6d697373696f6e00000000000060448201526064016105da565b6001600160a01b038516600090815260726020526040812080548592906116dd9084906125c2565b9250508190555082608160008282546116f691906125c2565b9091555050604080516001600160a01b038088168252861660208201529081018490524260608201527f46ed71e5a517338d4651db73cbabed89cb0a7dcf89a460d84ec3da03f67306a19060800160405180910390a15b61175684611cb8565b6001600160a01b038086166000908152606e6020526040902054169493508061177e81612627565b915050611585565b50505050505050565b6001600160a01b038116600090815260746020908152604080832060805463ffffffff16845290915281208054600192906117cb9084906125c2565b909155505050565b600054610100900460ff166117fa5760405162461bcd60e51b81526004016105da9061265d565b61079e336112d7565b6000806001600160a01b03841660009081526069602052604090205460ff166006811115611833576118336126e0565b6006811115611844576118446126e0565b1480156118525750600c8211155b1561185f57506001611a4b565b60016001600160a01b03841660009081526069602052604090205460ff16600681111561188e5761188e6126e0565b600681111561189f5761189f6126e0565b14806118e8575060026001600160a01b03841660009081526069602052604090205460ff1660068111156118d5576118d56126e0565b60068111156118e6576118e66126e0565b145b80156118f55750600d8211155b1561190257506001611a4b565b60036001600160a01b03841660009081526069602052604090205460ff166006811115611931576119316126e0565b6006811115611942576119426126e0565b148061198b575060046001600160a01b03841660009081526069602052604090205460ff166006811115611978576119786126e0565b6006811115611989576119896126e0565b145b80156119985750600e8211155b156119a557506001611a4b565b60056001600160a01b03841660009081526069602052604090205460ff1660068111156119d4576119d46126e0565b60068111156119e5576119e56126e0565b1480611a3a575060066001600160a01b03841660009081526069602052604090205460ff166006811115611a1b57611a1b6126e0565b6006811115611a2c57611a2c6126e0565b148015611a3a5750600f8211155b15611a4757506001611a4b565b5060005b92915050565b6000806001600160a01b03841660009081526069602052604090205460ff166006811115611a8157611a816126e0565b6006811115611a9257611a926126e0565b148015611aa0575060018211155b15611aad57506001611a4b565b60016001600160a01b03841660009081526069602052604090205460ff166006811115611adc57611adc6126e0565b6006811115611aed57611aed6126e0565b148015611afb575060028211155b15611b0857506001611a4b565b60026001600160a01b03841660009081526069602052604090205460ff166006811115611b3757611b376126e0565b6006811115611b4857611b486126e0565b148015611b56575060048211155b15611b6357506001611a4b565b60036001600160a01b03841660009081526069602052604090205460ff166006811115611b9257611b926126e0565b6006811115611ba357611ba36126e0565b148015611bb1575060068211155b15611bbe57506001611a4b565b60046001600160a01b03841660009081526069602052604090205460ff166006811115611bed57611bed6126e0565b6006811115611bfe57611bfe6126e0565b148015611c0c575060088211155b15611c1957506001611a4b565b60056001600160a01b03841660009081526069602052604090205460ff166006811115611c4857611c486126e0565b6006811115611c5957611c596126e0565b1480611a3a575060066001600160a01b03841660009081526069602052604090205460ff166006811115611c8f57611c8f6126e0565b6006811115611ca057611ca06126e0565b148015611a3a5750600a8211611a4757506001611a4b565b6001600160a01b038082166000908152606e602090815260408083205460759092528220805491909316926001929091611cf39084906125c2565b90915550611d02905081611d4e565b6001600160a01b038116600090815260696020526040902054600660ff909116111561127957611d3181611f67565b6001600160a01b0382166000908152607660205260409020555050565b6001600160a01b038116600090815260696020526040902054600660ff9091161115611d775750565b6001600160a01b0381166000908152606960209081526040918290205482518084019093526007835266393930b735901d60c91b9183019190915260ff1690611dc090826120c1565b6000611dcb83611f67565b9050611e0c6040518060400160405280601b81526020017f746f74616c4d656d62657273466f725570646174654c6576656c3a0000000000815250826120c1565b600782108015611e4357506077611e248360016125c2565b81548110611e3457611e346126ca565b90600052602060002001548110155b15611f475760408051808201909152601c81527f746f74616c4d656d62657252657175696564546f52616e6b5570733a000000006020820152611ead906077611e8d8560016125c2565b81548110611e9d57611e9d6126ca565b90600052602060002001546120c1565b611eb683612106565b15611f42576001600160a01b0383166000908152606960205260408120805460019290611ee790849060ff166126f6565b92506101000a81548160ff021916908360ff160217905550600182611f0c91906125c2565b9150611f366040518060400160405280600781526020016672616e6b202b3160c81b815250612279565b611f3f83611f67565b90505b611e0c565b6001600160a01b0390921660009081526076602052604090209190915550565b600080805b6001600160a01b0384166000908152606c60205260409020548110156120a2576001600160a01b0384166000908152606c60205260408120805483908110611fb657611fb66126ca565b9060005260206000200160009054906101000a90046001600160a01b031690506120056040518060400160405280600d81526020016c31b434b63220b2323932b9b99d60991b815250826122bc565b6120696040518060400160405280601b81526020017f6d746f74616c4d656d6265725b6368696c64416464726573735d3a000000000081525060756000846001600160a01b03166001600160a01b03168152602001908152602001600020546120c1565b6001600160a01b03811660009081526075602052604090205461208c90846125c2565b925050808061209a90612627565b915050611f6c565b50611a4b6040518060600160405280602281526020016127b560229139825b61127982826040516024016120d7929190612755565b60408051601f198184030181529190526020810180516001600160e01b03166309710a9d60e41b1790526122fd565b6001600160a01b038116600090815260696020908152604080832054606c90925282205460ff90911690600061213b8561231e565b905060798381548110612150576121506126ca565b60009182526020808320909101546001600160a01b0388168352606c909152604090912054106121cc57604080518082018252600a81526964696575206b69656e3160b01b6020808301919091526001600160a01b0388166000908152606c90915291909120546121c191906120c1565b506001949350505050565b607883815481106121df576121df6126ca565b9060005260206000200154821061221d576121c16040518060400160405280600b81526020016a3234b2ba9035b4b2b7191d60a91b815250836120c1565b607a8381548110612230576122306126ca565b9060005260206000200154811061226e576121c16040518060400160405280600b81526020016a3234b2ba9035b4b2b7199d60a91b815250826120c1565b506000949350505050565b610da08160405160240161228d9190612777565b60408051601f198184030181529190526020810180516001600160e01b031663104c13eb60e21b1790526122fd565b61127982826040516024016122d292919061278a565b60408051601f198184030181529190526020810180516001600160e01b031663319af33360e01b1790525b80516a636f6e736f6c652e6c6f67602083016000808483855afa5050505050565b6001600160a01b0381166000908152606c6020526040812080548291607591839190829061234e5761234e6126ca565b60009182526020808320909101546001600160a01b03168352820192909252604001902054905060015b6001600160a01b0384166000908152606c6020526040902054811015612420576001600160a01b0384166000908152606c602052604081208054839081106123c2576123c26126ca565b60009182526020808320909101546001600160a01b0316808352607590915260409091205490915083101561240d576001600160a01b03811660009081526075602052604090205492505b508061241881612627565b915050612378565b5092915050565b828054828255906000526020600020908101928215612468579160200282015b82811115612468578251829061ffff16905591602001919060010190612447565b506124749291506124b8565b5090565b828054828255906000526020600020908101928215612468579160200282015b82811115612468578251829060ff16905591602001919060010190612498565b5b8082111561247457600081556001016124b9565b6001600160a01b0381168114610da057600080fd5b6000602082840312156124f457600080fd5b81356124ff816124cd565b9392505050565b60006020828403121561251857600080fd5b5035919050565b60008060006060848603121561253457600080fd5b833561253f816124cd565b9250602084013561254f816124cd565b9150604084013561255f816124cd565b809150509250925092565b6000806040838503121561257d57600080fd5b8235612588816124cd565b9150602083013563ffffffff811681146125a157600080fd5b809150509250929050565b634e487b7160e01b600052601160045260246000fd5b80820180821115611a4b57611a4b6125ac565b6000602082840312156125e757600080fd5b5051919050565b60006020828403121561260057600080fd5b815180151581146124ff57600080fd5b8082028115828204841417611a4b57611a4b6125ac565b600060018201612639576126396125ac565b5060010190565b60006020828403121561265257600080fd5b81516124ff816124cd565b6020808252602b908201527f496e697469616c697a61626c653a20636f6e7472616374206973206e6f74206960408201526a6e697469616c697a696e6760a81b606082015260800190565b6000826126c557634e487b7160e01b600052601260045260246000fd5b500490565b634e487b7160e01b600052603260045260246000fd5b634e487b7160e01b600052602160045260246000fd5b60ff8181168382160190811115611a4b57611a4b6125ac565b6000815180845260005b8181101561273557602081850181015186830182015201612719565b506000602082860101526020601f19601f83011685010191505092915050565b604081526000612768604083018561270f565b90508260208301529392505050565b6020815260006124ff602083018461270f565b60408152600061279d604083018561270f565b905060018060a01b0383166020830152939250505056fe646179206c6120746f74616c4d656d62657273466f725570646174654c6576656c3aa26469706673582212207e38f34413163338cc43439937657555fee3becef2d9df0a526adf17065e9ea064736f6c63430008130033",
    "linkReferences": {}
  },
  "methodIdentifiers": {
    "AddHeadRef(bytes32)": "b4bf14c6",
    "GetCodeRef()": "d2057399",
    "PaySub()": "f7bd8236",
    "Register()": "19e5bf3a",
    "SetMasterPool(address)": "a559934e",
    "SetUsdt(address)": "ddcd6408",
    "comDirectRate(uint256)": "e610e46d",
    "currentMembersForLevelUp(address)": "46c83aab",
    "day()": "7b76ac91",
    "initialize(address,address,address)": "c0c53b8b",
    "lineMatrix(address)": "d6cf2f11",
    "mDailyMembers(address,uint32)": "c70d6f06",
    "mRefCode(bytes32)": "081fc579",
    "mSub(address)": "67574cb1",
    "mSubInfo(address)": "9f7bb6c7",
    "masterPool()": "8c7ab1d7",
    "matrixtree()": "9b121eac",
    "maxLineForMatrixBonus()": "a8b90f3f",
    "mtotalMember(address)": "91eea25f",
    "owner()": "8da5cb5b",
    "ranks(address)": "25691de4",
    "renounceOwnership()": "715018a6",
    "setMatrixTree(address)": "6a2aab97",
    "setRegisterFee(uint256)": "92be2ab8",
    "setSubFee(uint256)": "b1dd70d3",
    "subRequired(uint256)": "72d0470e",
    "totalMatrixBonus(address)": "d9796fd1",
    "totalMatrixPayment()": "b106b0c9",
    "totalMaxMembers1BranchToRankUp(uint256)": "6dd0f022",
    "totalMemberF1RequiedToRankUps(uint256)": "7dcdac8a",
    "totalMemberRequiedToRankUps(uint256)": "ab36667f",
    "totalSubcriptionBonus(address)": "0763872e",
    "totalSubscriptionPayment()": "795b5cd4",
    "totalUser()": "e1604b70",
    "transferOwnership(address)": "f2fde38b",
    "usdt()": "2f48ab7d",
    "usdtDecimal()": "362efc3d"
  },
  "id": 36
}