{
  "abi": [
    {
      "inputs": [
        {
          "internalType": "uint256",
          "name": "noElement",
          "type": "uint256"
        }
      ],
      "name": "getDepth",
      "outputs": [
        {
          "internalType": "uint256",
          "name": "",
          "type": "uint256"
        }
      ],
      "stateMutability": "pure",
      "type": "function"
    },
    {
      "inputs": [
        {
          "internalType": "address",
          "name": "addNode",
          "type": "address"
        }
      ],
      "name": "getIndexOfNode",
      "outputs": [
        {
          "internalType": "uint256",
          "name": "",
          "type": "uint256"
        }
      ],
      "stateMutability": "view",
      "type": "function"
    },
    {
      "inputs": [],
      "name": "getInsertedParent",
      "outputs": [
        {
          "internalType": "uint256",
          "name": "parentPosition",
          "type": "uint256"
        }
      ],
      "stateMutability": "view",
      "type": "function"
    },
    {
      "inputs": [
        {
          "internalType": "uint256",
          "name": "_indexOfNode",
          "type": "uint256"
        }
      ],
      "name": "getNodeInfo",
      "outputs": [
        {
          "components": [
            {
              "internalType": "address",
              "name": "value",
              "type": "address"
            },
            {
              "internalType": "uint256",
              "name": "leftChild",
              "type": "uint256"
            },
            {
              "internalType": "uint256",
              "name": "rightChild",
              "type": "uint256"
            }
          ],
          "internalType": "struct NodeStruct.Node",
          "name": "",
          "type": "tuple"
        }
      ],
      "stateMutability": "view",
      "type": "function"
    },
    {
      "inputs": [
        {
          "internalType": "address",
          "name": "addNode",
          "type": "address"
        }
      ],
      "name": "getParentAdd",
      "outputs": [
        {
          "internalType": "address",
          "name": "parentAdd",
          "type": "address"
        }
      ],
      "stateMutability": "view",
      "type": "function"
    },
    {
      "inputs": [
        {
          "internalType": "address",
          "name": "addNode",
          "type": "address"
        }
      ],
      "name": "getParentIndex",
      "outputs": [
        {
          "internalType": "uint256",
          "name": "parentPosition",
          "type": "uint256"
        }
      ],
      "stateMutability": "view",
      "type": "function"
    },
    {
      "inputs": [
        {
          "internalType": "address",
          "name": "",
          "type": "address"
        }
      ],
      "name": "indexOfNode",
      "outputs": [
        {
          "internalType": "uint256",
          "name": "",
          "type": "uint256"
        }
      ],
      "stateMutability": "view",
      "type": "function"
    },
    {
      "inputs": [
        {
          "internalType": "address",
          "name": "newMember",
          "type": "address"
        }
      ],
      "name": "insertMember",
      "outputs": [
        {
          "internalType": "bool",
          "name": "",
          "type": "bool"
        }
      ],
      "stateMutability": "nonpayable",
      "type": "function"
    },
    {
      "inputs": [
        {
          "internalType": "uint256",
          "name": "",
          "type": "uint256"
        }
      ],
      "name": "nodeList",
      "outputs": [
        {
          "internalType": "address",
          "name": "value",
          "type": "address"
        },
        {
          "internalType": "uint256",
          "name": "leftChild",
          "type": "uint256"
        },
        {
          "internalType": "uint256",
          "name": "rightChild",
          "type": "uint256"
        }
      ],
      "stateMutability": "view",
      "type": "function"
    }
  ],
  "bytecode": {
    "object": "0x608060405234801561001057600080fd5b50610937806100206000396000f3fe608060405234801561001057600080fd5b50600436106100935760003560e01c80638456f28a116100665780638456f28a14610157578063a132246014610180578063b500e4ed14610188578063bc31b1f51461019b578063f9d0ec4c146101c657600080fd5b8063208f2a311461009857806353e215f4146100d55780636090c2df1461011357806375e618c914610136575b600080fd5b6100ab6100a636600461075f565b6101e6565b604080516001600160a01b0390941684526020840192909252908201526060015b60405180910390f35b6100e86100e336600461075f565b610223565b6040805182516001600160a01b031681526020808401519082015291810151908201526060016100cc565b610126610121366004610778565b6102b6565b60405190151581526020016100cc565b61014961014436600461075f565b6103f8565b6040519081526020016100cc565b610149610165366004610778565b6001600160a01b031660009081526001602052604090205490565b610149610409565b610149610196366004610778565b6104ad565b6101ae6101a9366004610778565b6105ad565b6040516001600160a01b0390911681526020016100cc565b6101496101d4366004610778565b60016020526000908152604090205481565b600081815481106101f657600080fd5b60009182526020909120600390910201805460018201546002909201546001600160a01b03909116925083565b610250604051806060016040528060006001600160a01b0316815260200160008152602001600081525090565b600061025d6001846107be565b8154811061026d5761026d6107d1565b600091825260209182902060408051606081018252600390930290910180546001600160a01b031683526001810154938301939093526002909201549181019190915292915050565b6001600160a01b038116600090815260016020526040812054156103105760405162461bcd60e51b815260206004820152600c60248201526b13595b58995c88115e1a5cdd60a21b60448201526064015b60405180910390fd5b60008054900361032c57610323826105f9565b50600192915050565b6000610336610409565b905060006103456001836107be565b81548110610355576103556107d1565b9060005260206000209060030201600101546000036103ae57610377836105f9565b60006103846001846107be565b81548110610394576103946107d1565b906000526020600020906003020160010181905550610323565b60006103b9846105f9565b90508060006103c96001856107be565b815481106103d9576103d96107d1565b9060005260206000209060030201600201819055505050600192915050565b6000610403826106cb565b92915050565b60008054819061041a9060016107e7565b6000805491925090610431906101449060016107e7565b905061043e8160026108de565b6104496001836107be565b6104549060026108de565b61045e91906107e7565b82101561048c576104706001826107be565b61047b9060026108de565b61048590836107be565b9250505090565b6104976001826107be565b6104a29060026108de565b61047b9060026108ea565b6001600160a01b03811660009081526001602081905260408220541161050d5760405162461bcd60e51b8152602060048201526015602482015274746869732069732074686520726f6f74206e6f646560581b6044820152606401610307565b6001600160a01b03821660009081526001602052604081205490610530826103f8565b905061053d8160026108de565b6105486001836107be565b6105539060026108de565b61055d91906107e7565b82101561058c5761056f6001826107be565b61057a9060026108de565b61058490836107be565b949350505050565b6105976001826107be565b6105a29060026108de565b61057a9060026108ea565b6000806105b9836104ad565b905060006105c86001836107be565b815481106105d8576105d86107d1565b60009182526020909120600390910201546001600160a01b03169392505050565b604080516060810182526001600160a01b039283168082526000602080840182815284860183815283546001808201865585805296517f290decd9548b62a8d60345a988386fc84ba6bc95484008f6362f93160ef3e563600390920291820180546001600160a01b03191691909a161790985590517f290decd9548b62a8d60345a988386fc84ba6bc95484008f6362f93160ef3e564880155517f290decd9548b62a8d60345a988386fc84ba6bc95484008f6362f93160ef3e565909601959095558054918152919093522081905590565b600080608083901c156106e057608092831c92015b604083901c156106f257604092831c92015b602083901c1561070457602092831c92015b601083901c1561071657601092831c92015b600883901c1561072857600892831c92015b600483901c1561073a57600492831c92015b600283901c1561074c57600292831c92015b600183901c156104035760010192915050565b60006020828403121561077157600080fd5b5035919050565b60006020828403121561078a57600080fd5b81356001600160a01b03811681146107a157600080fd5b9392505050565b634e487b7160e01b600052601160045260246000fd5b81810381811115610403576104036107a8565b634e487b7160e01b600052603260045260246000fd5b80820180821115610403576104036107a8565b600181815b8085111561083557816000190482111561081b5761081b6107a8565b8085161561082857918102915b93841c93908002906107ff565b509250929050565b60008261084c57506001610403565b8161085957506000610403565b816001811461086f576002811461087957610895565b6001915050610403565b60ff84111561088a5761088a6107a8565b50506001821b610403565b5060208310610133831016604e8410600b84101617156108b8575081810a610403565b6108c283836107fa565b80600019048211156108d6576108d66107a8565b029392505050565b60006107a1838361083d565b8082028115828204841417610403576104036107a856fea26469706673582212207f0667409d7a6c4aa587b4f2f33deb36c140c26ae6420c1c06189273f5b3d97164736f6c63430008130033",
    "linkReferences": {}
  },
  "methodIdentifiers": {
    "getDepth(uint256)": "75e618c9",
    "getIndexOfNode(address)": "8456f28a",
    "getInsertedParent()": "a1322460",
    "getNodeInfo(uint256)": "53e215f4",
    "getParentAdd(address)": "bc31b1f5",
    "getParentIndex(address)": "b500e4ed",
    "indexOfNode(address)": "f9d0ec4c",
    "insertMember(address)": "6090c2df",
    "nodeList(uint256)": "208f2a31"
  },
  "id": 37
}