{
  "abi": [
    {
      "inputs": [
        {
          "internalType": "address",
          "name": "_usdt",
          "type": "address"
        }
      ],
      "stateMutability": "payable",
      "type": "constructor"
    },
    {
      "anonymous": false,
      "inputs": [
        {
          "indexed": true,
          "internalType": "address",
          "name": "previousOwner",
          "type": "address"
        },
        {
          "indexed": true,
          "internalType": "address",
          "name": "newOwner",
          "type": "address"
        }
      ],
      "name": "OwnershipTransferred",
      "type": "event"
    },
    {
      "inputs": [
        {
          "internalType": "address",
          "name": "_usdt",
          "type": "address"
        }
      ],
      "name": "SetUsdt",
      "outputs": [],
      "stateMutability": "nonpayable",
      "type": "function"
    },
    {
      "inputs": [],
      "name": "owner",
      "outputs": [
        {
          "internalType": "address",
          "name": "",
          "type": "address"
        }
      ],
      "stateMutability": "view",
      "type": "function"
    },
    {
      "inputs": [],
      "name": "refContract",
      "outputs": [
        {
          "internalType": "address",
          "name": "",
          "type": "address"
        }
      ],
      "stateMutability": "view",
      "type": "function"
    },
    {
      "inputs": [],
      "name": "renounceOwnership",
      "outputs": [],
      "stateMutability": "nonpayable",
      "type": "function"
    },
    {
      "inputs": [
        {
          "internalType": "address",
          "name": "_address",
          "type": "address"
        }
      ],
      "name": "setController",
      "outputs": [],
      "stateMutability": "nonpayable",
      "type": "function"
    },
    {
      "inputs": [
        {
          "internalType": "address",
          "name": "_to",
          "type": "address"
        },
        {
          "internalType": "uint256",
          "name": "amount",
          "type": "uint256"
        }
      ],
      "name": "transferCommission",
      "outputs": [
        {
          "internalType": "bool",
          "name": "",
          "type": "bool"
        }
      ],
      "stateMutability": "nonpayable",
      "type": "function"
    },
    {
      "inputs": [
        {
          "internalType": "address",
          "name": "newOwner",
          "type": "address"
        }
      ],
      "name": "transferOwnership",
      "outputs": [],
      "stateMutability": "nonpayable",
      "type": "function"
    },
    {
      "inputs": [],
      "name": "usdt",
      "outputs": [
        {
          "internalType": "address",
          "name": "",
          "type": "address"
        }
      ],
      "stateMutability": "view",
      "type": "function"
    },
    {
      "inputs": [
        {
          "internalType": "uint256",
          "name": "amount",
          "type": "uint256"
        }
      ],
      "name": "widthdraw",
      "outputs": [],
      "stateMutability": "nonpayable",
      "type": "function"
    }
  ],
  "bytecode": {
    "object": "0x608060405260405161063b38038061063b833981016040819052610022916100a0565b61002b33610050565b600180546001600160a01b0319166001600160a01b03929092169190911790556100d0565b600080546001600160a01b038381166001600160a01b0319831681178455604051919092169283917f8be0079c531659141344cd1fd0a4f28419497f9722a3daafe3b4186f6b6457e09190a35050565b6000602082840312156100b257600080fd5b81516001600160a01b03811681146100c957600080fd5b9392505050565b61055c806100df6000396000f3fe608060405234801561001057600080fd5b50600436106100935760003560e01c8063d9ea1b2211610066578063d9ea1b22146100f6578063ddcd640814610119578063df97d31c1461012c578063e0da260c1461013f578063f2fde38b1461015257600080fd5b80632f48ab7d14610098578063715018a6146100c85780638da5cb5b146100d257806392eefe9b146100e3575b600080fd5b6001546100ab906001600160a01b031681565b6040516001600160a01b0390911681526020015b60405180910390f35b6100d0610165565b005b6000546001600160a01b03166100ab565b6100d06100f13660046104a6565b610179565b6101096101043660046104c1565b6101a3565b60405190151581526020016100bf565b6100d06101273660046104a6565b610275565b6002546100ab906001600160a01b031681565b6100d061014d3660046104eb565b61029f565b6100d06101603660046104a6565b610367565b61016d6103e0565b610177600061043a565b565b6101816103e0565b600280546001600160a01b0319166001600160a01b0392909216919091179055565b6002546000906001600160a01b031633146101f75760405162461bcd60e51b815260206004820152600f60248201526e27b7363c9021b7b73a3937b63632b960891b60448201526064015b60405180910390fd5b60015460405163a9059cbb60e01b81526001600160a01b038581166004830152602482018590529091169063a9059cbb906044016020604051808303816000875af115801561024a573d6000803e3d6000fd5b505050506040513d601f19601f8201168201806040525081019061026e9190610504565b9392505050565b61027d6103e0565b600180546001600160a01b0319166001600160a01b0392909216919091179055565b6102a76103e0565b6001546001600160a01b03166102ee5760405162461bcd60e51b815260206004820152600c60248201526b125b9d985b1a59081d5cd91d60a21b60448201526064016101ee565b60015460405163a9059cbb60e01b8152336004820152602481018390526001600160a01b039091169063a9059cbb906044016020604051808303816000875af115801561033f573d6000803e3d6000fd5b505050506040513d601f19601f820116820180604052508101906103639190610504565b5050565b61036f6103e0565b6001600160a01b0381166103d45760405162461bcd60e51b815260206004820152602660248201527f4f776e61626c653a206e6577206f776e657220697320746865207a65726f206160448201526564647265737360d01b60648201526084016101ee565b6103dd8161043a565b50565b6000546001600160a01b031633146101775760405162461bcd60e51b815260206004820181905260248201527f4f776e61626c653a2063616c6c6572206973206e6f7420746865206f776e657260448201526064016101ee565b600080546001600160a01b038381166001600160a01b0319831681178455604051919092169283917f8be0079c531659141344cd1fd0a4f28419497f9722a3daafe3b4186f6b6457e09190a35050565b80356001600160a01b03811681146104a157600080fd5b919050565b6000602082840312156104b857600080fd5b61026e8261048a565b600080604083850312156104d457600080fd5b6104dd8361048a565b946020939093013593505050565b6000602082840312156104fd57600080fd5b5035919050565b60006020828403121561051657600080fd5b8151801515811461026e57600080fdfea2646970667358221220c3c59ac4a10829d952076e9dd1df7e4a55434f894ff750a556211f27abe9f42464736f6c63430008130033",
    "linkReferences": {}
  },
  "methodIdentifiers": {
    "SetUsdt(address)": "ddcd6408",
    "owner()": "8da5cb5b",
    "refContract()": "df97d31c",
    "renounceOwnership()": "715018a6",
    "setController(address)": "92eefe9b",
    "transferCommission(address,uint256)": "d9ea1b22",
    "transferOwnership(address)": "f2fde38b",
    "usdt()": "2f48ab7d",
    "widthdraw(uint256)": "e0da260c"
  },
  "id": 33
}