{
  "abi": [
    {
      "anonymous": false,
      "inputs": [
        {
          "indexed": true,
          "internalType": "address",
          "name": "owner",
          "type": "address"
        },
        {
          "indexed": true,
          "internalType": "address",
          "name": "spender",
          "type": "address"
        },
        {
          "indexed": false,
          "internalType": "uint256",
          "name": "amount",
          "type": "uint256"
        }
      ],
      "name": "Approval",
      "type": "event"
    },
    {
      "anonymous": false,
      "inputs": [
        {
          "indexed": true,
          "internalType": "address",
          "name": "from",
          "type": "address"
        },
        {
          "indexed": true,
          "internalType": "address",
          "name": "to",
          "type": "address"
        },
        {
          "indexed": false,
          "internalType": "uint256",
          "name": "amount",
          "type": "uint256"
        }
      ],
      "name": "Transfer",
      "type": "event"
    },
    {
      "inputs": [],
      "name": "DOMAIN_SEPARATOR",
      "outputs": [
        {
          "internalType": "bytes32",
          "name": "",
          "type": "bytes32"
        }
      ],
      "stateMutability": "view",
      "type": "function"
    },
    {
      "inputs": [
        {
          "internalType": "address",
          "name": "",
          "type": "address"
        },
        {
          "internalType": "address",
          "name": "",
          "type": "address"
        }
      ],
      "name": "allowance",
      "outputs": [
        {
          "internalType": "uint256",
          "name": "",
          "type": "uint256"
        }
      ],
      "stateMutability": "view",
      "type": "function"
    },
    {
      "inputs": [
        {
          "internalType": "address",
          "name": "spender",
          "type": "address"
        },
        {
          "internalType": "uint256",
          "name": "amount",
          "type": "uint256"
        }
      ],
      "name": "approve",
      "outputs": [
        {
          "internalType": "bool",
          "name": "",
          "type": "bool"
        }
      ],
      "stateMutability": "nonpayable",
      "type": "function"
    },
    {
      "inputs": [
        {
          "internalType": "address",
          "name": "",
          "type": "address"
        }
      ],
      "name": "balanceOf",
      "outputs": [
        {
          "internalType": "uint256",
          "name": "",
          "type": "uint256"
        }
      ],
      "stateMutability": "view",
      "type": "function"
    },
    {
      "inputs": [],
      "name": "decimals",
      "outputs": [
        {
          "internalType": "uint8",
          "name": "",
          "type": "uint8"
        }
      ],
      "stateMutability": "view",
      "type": "function"
    },
    {
      "inputs": [
        {
          "internalType": "string",
          "name": "_name",
          "type": "string"
        },
        {
          "internalType": "string",
          "name": "_symbol",
          "type": "string"
        },
        {
          "internalType": "uint8",
          "name": "_decimals",
          "type": "uint8"
        }
      ],
      "name": "initialize",
      "outputs": [],
      "stateMutability": "nonpayable",
      "type": "function"
    },
    {
      "inputs": [],
      "name": "name",
      "outputs": [
        {
          "internalType": "string",
          "name": "",
          "type": "string"
        }
      ],
      "stateMutability": "view",
      "type": "function"
    },
    {
      "inputs": [
        {
          "internalType": "address",
          "name": "",
          "type": "address"
        }
      ],
      "name": "nonces",
      "outputs": [
        {
          "internalType": "uint256",
          "name": "",
          "type": "uint256"
        }
      ],
      "stateMutability": "view",
      "type": "function"
    },
    {
      "inputs": [
        {
          "internalType": "address",
          "name": "owner",
          "type": "address"
        },
        {
          "internalType": "address",
          "name": "spender",
          "type": "address"
        },
        {
          "internalType": "uint256",
          "name": "value",
          "type": "uint256"
        },
        {
          "internalType": "uint256",
          "name": "deadline",
          "type": "uint256"
        },
        {
          "internalType": "uint8",
          "name": "v",
          "type": "uint8"
        },
        {
          "internalType": "bytes32",
          "name": "r",
          "type": "bytes32"
        },
        {
          "internalType": "bytes32",
          "name": "s",
          "type": "bytes32"
        }
      ],
      "name": "permit",
      "outputs": [],
      "stateMutability": "nonpayable",
      "type": "function"
    },
    {
      "inputs": [],
      "name": "symbol",
      "outputs": [
        {
          "internalType": "string",
          "name": "",
          "type": "string"
        }
      ],
      "stateMutability": "view",
      "type": "function"
    },
    {
      "inputs": [],
      "name": "totalSupply",
      "outputs": [
        {
          "internalType": "uint256",
          "name": "",
          "type": "uint256"
        }
      ],
      "stateMutability": "view",
      "type": "function"
    },
    {
      "inputs": [
        {
          "internalType": "address",
          "name": "to",
          "type": "address"
        },
        {
          "internalType": "uint256",
          "name": "amount",
          "type": "uint256"
        }
      ],
      "name": "transfer",
      "outputs": [
        {
          "internalType": "bool",
          "name": "",
          "type": "bool"
        }
      ],
      "stateMutability": "nonpayable",
      "type": "function"
    },
    {
      "inputs": [
        {
          "internalType": "address",
          "name": "from",
          "type": "address"
        },
        {
          "internalType": "address",
          "name": "to",
          "type": "address"
        },
        {
          "internalType": "uint256",
          "name": "amount",
          "type": "uint256"
        }
      ],
      "name": "transferFrom",
      "outputs": [
        {
          "internalType": "bool",
          "name": "",
          "type": "bool"
        }
      ],
      "stateMutability": "nonpayable",
      "type": "function"
    }
  ],
  "bytecode": {
    "object": "0x608060405234801561001057600080fd5b50610e67806100206000396000f3fe608060405234801561001057600080fd5b50600436106100cf5760003560e01c80633644e5151161008c57806395d89b411161006657806395d89b41146101bb578063a9059cbb146101c3578063d505accf146101d6578063dd62ed3e146101e957600080fd5b80633644e5151461017357806370a082311461017b5780637ecebe001461019b57600080fd5b806306fdde03146100d4578063095ea7b3146100f25780631624f6c61461011557806318160ddd1461012a57806323b872dd14610141578063313ce56714610154575b600080fd5b6100dc610214565b6040516100e9919061096d565b60405180910390f35b6101056101003660046109d7565b6102a2565b60405190151581526020016100e9565b610128610123366004610ab5565b61030f565b005b61013360035481565b6040519081526020016100e9565b61010561014f366004610b29565b6103ae565b6002546101619060ff1681565b60405160ff90911681526020016100e9565b6101336104c3565b610133610189366004610b65565b60046020526000908152604090205481565b6101336101a9366004610b65565b60086020526000908152604090205481565b6100dc6104e9565b6101056101d13660046109d7565b6104f6565b6101286101e4366004610b80565b61058d565b6101336101f7366004610bea565b600560209081526000928352604080842090915290825290205481565b6000805461022190610c1d565b80601f016020809104026020016040519081016040528092919081815260200182805461024d90610c1d565b801561029a5780601f1061026f5761010080835404028352916020019161029a565b820191906000526020600020905b81548152906001019060200180831161027d57829003601f168201915b505050505081565b3360008181526005602090815260408083206001600160a01b038716808552925280832085905551919290917f8c5be1e5ebec7d5bd14f71427d1e84f3dd0314c0f7b2291e5b200ac8c7c3b925906102fd9086815260200190565b60405180910390a35060015b92915050565b60095460ff161561035d5760405162461bcd60e51b81526020600482015260136024820152721053149150511657d253925512505312569151606a1b60448201526064015b60405180910390fd5b60006103698482610ca6565b5060016103768382610ca6565b506002805460ff191660ff831617905561038e6107eb565b600655610399610804565b60075550506009805460ff1916600117905550565b6001600160a01b0383166000908152600560209081526040808320338452909152812054600019811461040a576103e581846108a7565b6001600160a01b03861660009081526005602090815260408083203384529091529020555b6001600160a01b03851660009081526004602052604090205461042d90846108a7565b6001600160a01b03808716600090815260046020526040808220939093559086168152205461045c908461090a565b6001600160a01b0380861660008181526004602052604090819020939093559151908716907fddf252ad1be2c89b69c2b068fc378daa952ba7f163c4a11628f55a4df523b3ef906104b09087815260200190565b60405180910390a3506001949350505050565b60006006546104d06107eb565b146104e2576104dd610804565b905090565b5060075490565b6001805461022190610c1d565b3360009081526004602052604081205461051090836108a7565b33600090815260046020526040808220929092556001600160a01b0385168152205461053c908361090a565b6001600160a01b0384166000818152600460205260409081902092909255905133907fddf252ad1be2c89b69c2b068fc378daa952ba7f163c4a11628f55a4df523b3ef906102fd9086815260200190565b428410156105dd5760405162461bcd60e51b815260206004820152601760248201527f5045524d49545f444541444c494e455f455850495245440000000000000000006044820152606401610354565b600060016105e96104c3565b6001600160a01b038a16600090815260086020526040812080547f6e71edae12b1b97f4d1f60370fef10105fa2faae0126114a169c64845d6126c9928d928d928d9290919061063783610d7c565b909155506040805160208101969096526001600160a01b0394851690860152929091166060840152608083015260a082015260c0810188905260e001604051602081830303815290604052805190602001206040516020016106b092919061190160f01b81526002810192909252602282015260420190565b60408051601f198184030181528282528051602091820120600084529083018083525260ff871690820152606081018590526080810184905260a0016020604051602081039080840390855afa15801561070e573d6000803e3d6000fd5b5050604051601f1901519150506001600160a01b038116158015906107445750876001600160a01b0316816001600160a01b0316145b6107815760405162461bcd60e51b815260206004820152600e60248201526d24a72b20a624a22fa9a4a3a722a960911b6044820152606401610354565b6001600160a01b0381811660009081526005602090815260408083208b8516808552908352928190208a90555189815291928b16917f8c5be1e5ebec7d5bd14f71427d1e84f3dd0314c0f7b2291e5b200ac8c7c3b925910160405180910390a35050505050505050565b6000610969806107fd63ffffffff8216565b9250505090565b60007f8b73c3c69bb8fe3d512ecc4cf759cc79239f7b179b0ffacaa9a75d522b39400f60006040516108369190610d95565b60405180910390207fc89efdaa54c0f20c7adf612882df0950f5a951637e0307cdcb4c672f298b8bc66108676107eb565b604080516020810195909552840192909252606083015260808201523060a082015260c00160405160208183030381529060405280519060200120905090565b6000818310156108f95760405162461bcd60e51b815260206004820152601c60248201527f45524332303a207375627472616374696f6e20756e646572666c6f77000000006044820152606401610354565b6109038284610e0b565b9392505050565b6000806109178385610e1e565b9050838110156109035760405162461bcd60e51b815260206004820152601860248201527f45524332303a206164646974696f6e206f766572666c6f7700000000000000006044820152606401610354565b4690565b600060208083528351808285015260005b8181101561099a5785810183015185820160400152820161097e565b506000604082860101526040601f19601f8301168501019250505092915050565b80356001600160a01b03811681146109d257600080fd5b919050565b600080604083850312156109ea57600080fd5b6109f3836109bb565b946020939093013593505050565b634e487b7160e01b600052604160045260246000fd5b600082601f830112610a2857600080fd5b813567ffffffffffffffff80821115610a4357610a43610a01565b604051601f8301601f19908116603f01168101908282118183101715610a6b57610a6b610a01565b81604052838152866020858801011115610a8457600080fd5b836020870160208301376000602085830101528094505050505092915050565b803560ff811681146109d257600080fd5b600080600060608486031215610aca57600080fd5b833567ffffffffffffffff80821115610ae257600080fd5b610aee87838801610a17565b94506020860135915080821115610b0457600080fd5b50610b1186828701610a17565b925050610b2060408501610aa4565b90509250925092565b600080600060608486031215610b3e57600080fd5b610b47846109bb565b9250610b55602085016109bb565b9150604084013590509250925092565b600060208284031215610b7757600080fd5b610903826109bb565b600080600080600080600060e0888a031215610b9b57600080fd5b610ba4886109bb565b9650610bb2602089016109bb565b95506040880135945060608801359350610bce60808901610aa4565b925060a0880135915060c0880135905092959891949750929550565b60008060408385031215610bfd57600080fd5b610c06836109bb565b9150610c14602084016109bb565b90509250929050565b600181811c90821680610c3157607f821691505b602082108103610c5157634e487b7160e01b600052602260045260246000fd5b50919050565b601f821115610ca157600081815260208120601f850160051c81016020861015610c7e5750805b601f850160051c820191505b81811015610c9d57828155600101610c8a565b5050505b505050565b815167ffffffffffffffff811115610cc057610cc0610a01565b610cd481610cce8454610c1d565b84610c57565b602080601f831160018114610d095760008415610cf15750858301515b600019600386901b1c1916600185901b178555610c9d565b600085815260208120601f198616915b82811015610d3857888601518255948401946001909101908401610d19565b5085821015610d565787850151600019600388901b60f8161c191681555b5050505050600190811b01905550565b634e487b7160e01b600052601160045260246000fd5b600060018201610d8e57610d8e610d66565b5060010190565b6000808354610da381610c1d565b60018281168015610dbb5760018114610dd057610dff565b60ff1984168752821515830287019450610dff565b8760005260208060002060005b85811015610df65781548a820152908401908201610ddd565b50505082870194505b50929695505050505050565b8181038181111561030957610309610d66565b8082018082111561030957610309610d6656fea2646970667358221220bd00a2b804f8e4248ff8cc4a0eec8421914b0c8c28e0f5cffcc8cb67d56d2ca364736f6c63430008130033",
    "linkReferences": {}
  },
  "methodIdentifiers": {
    "DOMAIN_SEPARATOR()": "3644e515",
    "allowance(address,address)": "dd62ed3e",
    "approve(address,uint256)": "095ea7b3",
    "balanceOf(address)": "70a08231",
    "decimals()": "313ce567",
    "initialize(string,string,uint8)": "1624f6c6",
    "name()": "06fdde03",
    "nonces(address)": "7ecebe00",
    "permit(address,address,uint256,uint256,uint8,bytes32,bytes32)": "d505accf",
    "symbol()": "95d89b41",
    "totalSupply()": "18160ddd",
    "transfer(address,uint256)": "a9059cbb",
    "transferFrom(address,address,uint256)": "23b872dd"
  },
  "id": 18
}