{
  "abi": [
    {
      "inputs": [],
      "stateMutability": "payable",
      "type": "constructor"
    },
    {
      "anonymous": false,
      "inputs": [
        {
          "indexed": false,
          "internalType": "address",
          "name": "_user",
          "type": "address"
        }
      ],
      "name": "AddedBlackList",
      "type": "event"
    },
    {
      "anonymous": false,
      "inputs": [
        {
          "indexed": true,
          "internalType": "address",
          "name": "owner",
          "type": "address"
        },
        {
          "indexed": true,
          "internalType": "address",
          "name": "spender",
          "type": "address"
        },
        {
          "indexed": false,
          "internalType": "uint256",
          "name": "value",
          "type": "uint256"
        }
      ],
      "name": "Approval",
      "type": "event"
    },
    {
      "anonymous": false,
      "inputs": [
        {
          "indexed": false,
          "internalType": "address",
          "name": "user",
          "type": "address"
        },
        {
          "indexed": false,
          "internalType": "uint256",
          "name": "amount",
          "type": "uint256"
        },
        {
          "indexed": false,
          "internalType": "address",
          "name": "commitAddress",
          "type": "address"
        }
      ],
      "name": "Commit",
      "type": "event"
    },
    {
      "anonymous": false,
      "inputs": [
        {
          "indexed": false,
          "internalType": "address",
          "name": "_blackListedUser",
          "type": "address"
        },
        {
          "indexed": false,
          "internalType": "uint256",
          "name": "_balance",
          "type": "uint256"
        }
      ],
      "name": "DestroyedBlackFunds",
      "type": "event"
    },
    {
      "anonymous": false,
      "inputs": [
        {
          "indexed": false,
          "internalType": "address",
          "name": "_controller",
          "type": "address"
        },
        {
          "indexed": false,
          "internalType": "address",
          "name": "_recipient",
          "type": "address"
        },
        {
          "indexed": false,
          "internalType": "uint256",
          "name": "_amount",
          "type": "uint256"
        }
      ],
      "name": "MintByController",
      "type": "event"
    },
    {
      "anonymous": false,
      "inputs": [
        {
          "indexed": true,
          "internalType": "address",
          "name": "previousOwner",
          "type": "address"
        },
        {
          "indexed": true,
          "internalType": "address",
          "name": "newOwner",
          "type": "address"
        }
      ],
      "name": "OwnershipTransferred",
      "type": "event"
    },
    {
      "anonymous": false,
      "inputs": [
        {
          "indexed": false,
          "internalType": "address",
          "name": "account",
          "type": "address"
        }
      ],
      "name": "Paused",
      "type": "event"
    },
    {
      "anonymous": false,
      "inputs": [
        {
          "indexed": false,
          "internalType": "address",
          "name": "_user",
          "type": "address"
        }
      ],
      "name": "RemovedBlackList",
      "type": "event"
    },
    {
      "anonymous": false,
      "inputs": [
        {
          "indexed": true,
          "internalType": "address",
          "name": "from",
          "type": "address"
        },
        {
          "indexed": true,
          "internalType": "address",
          "name": "to",
          "type": "address"
        },
        {
          "indexed": false,
          "internalType": "uint256",
          "name": "value",
          "type": "uint256"
        }
      ],
      "name": "Transfer",
      "type": "event"
    },
    {
      "anonymous": false,
      "inputs": [
        {
          "indexed": false,
          "internalType": "address",
          "name": "account",
          "type": "address"
        }
      ],
      "name": "Unpaused",
      "type": "event"
    },
    {
      "inputs": [
        {
          "internalType": "address",
          "name": "caller",
          "type": "address"
        },
        {
          "internalType": "address",
          "name": "spender",
          "type": "address"
        },
        {
          "internalType": "uint256",
          "name": "amount",
          "type": "uint256"
        }
      ],
      "name": "ApproveByInterface",
      "outputs": [
        {
          "internalType": "bool",
          "name": "",
          "type": "bool"
        }
      ],
      "stateMutability": "nonpayable",
      "type": "function"
    },
    {
      "inputs": [
        {
          "internalType": "uint256",
          "name": "amount",
          "type": "uint256"
        }
      ],
      "name": "CommitToMainnet",
      "outputs": [
        {
          "internalType": "address",
          "name": "commitAddress",
          "type": "address"
        }
      ],
      "stateMutability": "nonpayable",
      "type": "function"
    },
    {
      "inputs": [],
      "name": "Pause",
      "outputs": [],
      "stateMutability": "nonpayable",
      "type": "function"
    },
    {
      "inputs": [],
      "name": "UnPause",
      "outputs": [],
      "stateMutability": "nonpayable",
      "type": "function"
    },
    {
      "inputs": [],
      "name": "VNDTController",
      "outputs": [
        {
          "internalType": "address",
          "name": "",
          "type": "address"
        }
      ],
      "stateMutability": "view",
      "type": "function"
    },
    {
      "inputs": [
        {
          "internalType": "address",
          "name": "_evilUser",
          "type": "address"
        }
      ],
      "name": "addBlackList",
      "outputs": [],
      "stateMutability": "nonpayable",
      "type": "function"
    },
    {
      "inputs": [
        {
          "internalType": "address",
          "name": "owner",
          "type": "address"
        },
        {
          "internalType": "address",
          "name": "spender",
          "type": "address"
        }
      ],
      "name": "allowance",
      "outputs": [
        {
          "internalType": "uint256",
          "name": "",
          "type": "uint256"
        }
      ],
      "stateMutability": "view",
      "type": "function"
    },
    {
      "inputs": [
        {
          "internalType": "address",
          "name": "spender",
          "type": "address"
        },
        {
          "internalType": "uint256",
          "name": "amount",
          "type": "uint256"
        }
      ],
      "name": "approve",
      "outputs": [
        {
          "internalType": "bool",
          "name": "",
          "type": "bool"
        }
      ],
      "stateMutability": "nonpayable",
      "type": "function"
    },
    {
      "inputs": [
        {
          "internalType": "address",
          "name": "account",
          "type": "address"
        }
      ],
      "name": "balanceOf",
      "outputs": [
        {
          "internalType": "uint256",
          "name": "",
          "type": "uint256"
        }
      ],
      "stateMutability": "view",
      "type": "function"
    },
    {
      "inputs": [
        {
          "internalType": "address",
          "name": "account",
          "type": "address"
        },
        {
          "internalType": "uint256",
          "name": "amount",
          "type": "uint256"
        }
      ],
      "name": "burnByOwner",
      "outputs": [],
      "stateMutability": "nonpayable",
      "type": "function"
    },
    {
      "inputs": [
        {
          "internalType": "address",
          "name": "",
          "type": "address"
        }
      ],
      "name": "controllers",
      "outputs": [
        {
          "internalType": "bool",
          "name": "",
          "type": "bool"
        }
      ],
      "stateMutability": "view",
      "type": "function"
    },
    {
      "inputs": [],
      "name": "decimals",
      "outputs": [
        {
          "internalType": "uint8",
          "name": "",
          "type": "uint8"
        }
      ],
      "stateMutability": "view",
      "type": "function"
    },
    {
      "inputs": [
        {
          "internalType": "address",
          "name": "spender",
          "type": "address"
        },
        {
          "internalType": "uint256",
          "name": "subtractedValue",
          "type": "uint256"
        }
      ],
      "name": "decreaseAllowance",
      "outputs": [
        {
          "internalType": "bool",
          "name": "",
          "type": "bool"
        }
      ],
      "stateMutability": "nonpayable",
      "type": "function"
    },
    {
      "inputs": [
        {
          "internalType": "address",
          "name": "_blackListedUser",
          "type": "address"
        }
      ],
      "name": "destroyBlackFunds",
      "outputs": [],
      "stateMutability": "nonpayable",
      "type": "function"
    },
    {
      "inputs": [
        {
          "internalType": "address",
          "name": "_controller",
          "type": "address"
        },
        {
          "internalType": "bool",
          "name": "_status",
          "type": "bool"
        }
      ],
      "name": "editController",
      "outputs": [
        {
          "internalType": "bool",
          "name": "",
          "type": "bool"
        }
      ],
      "stateMutability": "nonpayable",
      "type": "function"
    },
    {
      "inputs": [
        {
          "internalType": "address",
          "name": "_maker",
          "type": "address"
        }
      ],
      "name": "getBlackListStatus",
      "outputs": [
        {
          "internalType": "bool",
          "name": "",
          "type": "bool"
        }
      ],
      "stateMutability": "view",
      "type": "function"
    },
    {
      "inputs": [
        {
          "internalType": "address",
          "name": "spender",
          "type": "address"
        },
        {
          "internalType": "uint256",
          "name": "addedValue",
          "type": "uint256"
        }
      ],
      "name": "increaseAllowance",
      "outputs": [
        {
          "internalType": "bool",
          "name": "",
          "type": "bool"
        }
      ],
      "stateMutability": "nonpayable",
      "type": "function"
    },
    {
      "inputs": [
        {
          "internalType": "address",
          "name": "",
          "type": "address"
        }
      ],
      "name": "isBlackListed",
      "outputs": [
        {
          "internalType": "bool",
          "name": "",
          "type": "bool"
        }
      ],
      "stateMutability": "view",
      "type": "function"
    },
    {
      "inputs": [
        {
          "internalType": "address",
          "name": "recipient",
          "type": "address"
        },
        {
          "internalType": "uint256",
          "name": "amount",
          "type": "uint256"
        }
      ],
      "name": "mintByController",
      "outputs": [
        {
          "internalType": "bool",
          "name": "",
          "type": "bool"
        }
      ],
      "stateMutability": "nonpayable",
      "type": "function"
    },
    {
      "inputs": [
        {
          "internalType": "address",
          "name": "recipient",
          "type": "address"
        },
        {
          "internalType": "uint256",
          "name": "amount",
          "type": "uint256"
        }
      ],
      "name": "mintToAddress",
      "outputs": [
        {
          "internalType": "bool",
          "name": "",
          "type": "bool"
        }
      ],
      "stateMutability": "nonpayable",
      "type": "function"
    },
    {
      "inputs": [],
      "name": "name",
      "outputs": [
        {
          "internalType": "string",
          "name": "",
          "type": "string"
        }
      ],
      "stateMutability": "view",
      "type": "function"
    },
    {
      "inputs": [],
      "name": "owner",
      "outputs": [
        {
          "internalType": "address",
          "name": "",
          "type": "address"
        }
      ],
      "stateMutability": "view",
      "type": "function"
    },
    {
      "inputs": [],
      "name": "paused",
      "outputs": [
        {
          "internalType": "bool",
          "name": "",
          "type": "bool"
        }
      ],
      "stateMutability": "view",
      "type": "function"
    },
    {
      "inputs": [],
      "name": "receiverAddress",
      "outputs": [
        {
          "internalType": "address",
          "name": "",
          "type": "address"
        }
      ],
      "stateMutability": "view",
      "type": "function"
    },
    {
      "inputs": [
        {
          "internalType": "address",
          "name": "_clearedUser",
          "type": "address"
        }
      ],
      "name": "removeBlackList",
      "outputs": [],
      "stateMutability": "nonpayable",
      "type": "function"
    },
    {
      "inputs": [],
      "name": "renounceOwnership",
      "outputs": [],
      "stateMutability": "nonpayable",
      "type": "function"
    },
    {
      "inputs": [
        {
          "internalType": "address",
          "name": "_address",
          "type": "address"
        }
      ],
      "name": "setReceiverAddress",
      "outputs": [],
      "stateMutability": "nonpayable",
      "type": "function"
    },
    {
      "inputs": [],
      "name": "symbol",
      "outputs": [
        {
          "internalType": "string",
          "name": "",
          "type": "string"
        }
      ],
      "stateMutability": "view",
      "type": "function"
    },
    {
      "inputs": [],
      "name": "totalSupply",
      "outputs": [
        {
          "internalType": "uint256",
          "name": "",
          "type": "uint256"
        }
      ],
      "stateMutability": "view",
      "type": "function"
    },
    {
      "inputs": [
        {
          "internalType": "address",
          "name": "to",
          "type": "address"
        },
        {
          "internalType": "uint256",
          "name": "amount",
          "type": "uint256"
        }
      ],
      "name": "transfer",
      "outputs": [
        {
          "internalType": "bool",
          "name": "",
          "type": "bool"
        }
      ],
      "stateMutability": "nonpayable",
      "type": "function"
    },
    {
      "inputs": [
        {
          "internalType": "address",
          "name": "from",
          "type": "address"
        },
        {
          "internalType": "address",
          "name": "to",
          "type": "address"
        },
        {
          "internalType": "uint256",
          "name": "amount",
          "type": "uint256"
        }
      ],
      "name": "transferFrom",
      "outputs": [
        {
          "internalType": "bool",
          "name": "",
          "type": "bool"
        }
      ],
      "stateMutability": "nonpayable",
      "type": "function"
    },
    {
      "inputs": [
        {
          "internalType": "address",
          "name": "newOwner",
          "type": "address"
        }
      ],
      "name": "transferOwnership",
      "outputs": [],
      "stateMutability": "nonpayable",
      "type": "function"
    }
  ],
  "bytecode": {
    "object": "0x601260809081527113595d1848111bdb1b185c8814995dd85c9960721b60a052610100604052600560c0908152642aa9a226a960d91b60e0526200004333620000b9565b60046200005183826200027a565b5060056200006082826200027a565b50506006805460ff199081169091553360009081526008602052604090208054909116600117905550620000b3620000a06000546001600160a01b031690565b6b033b2e3c9fd0803ce800000062000109565b6200036e565b600080546001600160a01b038381166001600160a01b0319831681178455604051919092169283917f8be0079c531659141344cd1fd0a4f28419497f9722a3daafe3b4186f6b6457e09190a35050565b6001600160a01b038216620001645760405162461bcd60e51b815260206004820152601f60248201527f45524332303a206d696e7420746f20746865207a65726f206164647265737300604482015260640160405180910390fd5b806003600082825462000178919062000346565b90915550506001600160a01b0382166000818152600160209081526040808320805486019055518481527fddf252ad1be2c89b69c2b068fc378daa952ba7f163c4a11628f55a4df523b3ef910160405180910390a35050565b505050565b634e487b7160e01b600052604160045260246000fd5b600181811c908216806200020157607f821691505b6020821081036200022257634e487b7160e01b600052602260045260246000fd5b50919050565b601f821115620001d157600081815260208120601f850160051c81016020861015620002515750805b601f850160051c820191505b8181101562000272578281556001016200025d565b505050505050565b81516001600160401b03811115620002965762000296620001d6565b620002ae81620002a78454620001ec565b8462000228565b602080601f831160018114620002e65760008415620002cd5750858301515b600019600386901b1c1916600185901b17855562000272565b600085815260208120601f198616915b828110156200031757888601518255948401946001909101908401620002f6565b5085821015620003365787850151600019600388901b60f8161c191681555b5050505050600190811b01905550565b808201808211156200036857634e487b7160e01b600052601160045260246000fd5b92915050565b6113ad806200037e6000396000f3fe608060405234801561001057600080fd5b50600436106101f05760003560e01c806370a082311161010f578063c68990ad116100a2578063e47d606011610071578063e47d606014610443578063e4997dc514610466578063f2fde38b14610479578063f3bdc2281461048c57600080fd5b8063c68990ad146103e6578063c8d683bf146103f9578063da8c229e1461040d578063dd62ed3e1461043057600080fd5b80638da5cb5b116100de5780638da5cb5b146103a757806395d89b41146103b8578063a457c2d7146103c0578063a9059cbb146103d357600080fd5b806370a0823114610350578063715018a6146103795780638279c7db14610381578063895da9491461039457600080fd5b80632517de1c1161018757806359bf1abe1161015657806359bf1abe146102fe5780635ad17da91461032a5780635c975abb1461033d5780636985a0221461034857600080fd5b80632517de1c146102c1578063313ce567146102d457806339509351146102e3578063438cd2d3146102f657600080fd5b806316fed3e2116101c357806316fed3e21461025e57806318160ddd1461028957806321ca42361461029b57806323b872dd146102ae57600080fd5b806306fdde03146101f5578063095ea7b3146102135780630ecb93c014610236578063111a18d31461024b575b600080fd5b6101fd61049f565b60405161020a9190611150565b60405180910390f35b6102266102213660046111ba565b610531565b604051901515815260200161020a565b6102496102443660046111e4565b61054b565b005b6102496102593660046111ba565b6105ae565b600d54610271906001600160a01b031681565b6040516001600160a01b03909116815260200161020a565b6003545b60405190815260200161020a565b6102266102a93660046111ba565b6105c4565b6102266102bc366004611206565b61060f565b6102266102cf366004611206565b61062f565b6040516012815260200161020a565b6102266102f13660046111ba565b610673565b610249610695565b61022661030c3660046111e4565b6001600160a01b031660009081526007602052604090205460ff1690565b610226610338366004611242565b6106a7565b60065460ff16610226565b6102496106db565b61028d61035e3660046111e4565b6001600160a01b031660009081526001602052604090205490565b6102496106eb565b61024961038f3660046111e4565b6106fd565b600c54610271906001600160a01b031681565b6000546001600160a01b0316610271565b6101fd610727565b6102266103ce3660046111ba565b610736565b6102266103e13660046111ba565b6107bc565b6102266103f43660046111ba565b6107d1565b61027161040736600461127e565b50600090565b61022661041b3660046111e4565b60086020526000908152604090205460ff1681565b61028d61043e366004611297565b61085c565b6102266104513660046111e4565b60076020526000908152604090205460ff1681565b6102496104743660046111e4565b610887565b6102496104873660046111e4565b6108e0565b61024961049a3660046111e4565b610959565b6060600480546104ae906112ca565b80601f01602080910402602001604051908101604052809291908181526020018280546104da906112ca565b80156105275780601f106104fc57610100808354040283529160200191610527565b820191906000526020600020905b81548152906001019060200180831161050a57829003601f168201915b5050505050905090565b60003361053f818585610a3c565b60019150505b92915050565b610553610b61565b6001600160a01b038116600081815260076020908152604091829020805460ff1916600117905590519182527f42e160154868087d6bfdc0ca23d96a1c1cfa32f1b72ba9ba27b69b98a0d819dc91015b60405180910390a150565b6105b6610b61565b6105c08282610bbb565b5050565b3360009081526008602052604081205460ff166105fc5760405162461bcd60e51b81526004016105f390611304565b60405180910390fd5b6106068383610ce7565b50600192915050565b6000610619610da8565b6000610626858585610dee565b95945050505050565b3360009081526008602052604081205460ff1661065e5760405162461bcd60e51b81526004016105f390611304565b610669848484610a3c565b5060019392505050565b60003361053f818585610686838361085c565b6106909190611351565b610a3c565b61069d610b61565b6106a5610e07565b565b60006106b1610b61565b506001600160a01b03919091166000908152600860205260409020805460ff191682151517905590565b6106e3610b61565b6106a5610e59565b6106f3610b61565b6106a56000610e96565b610705610b61565b600d80546001600160a01b0319166001600160a01b0392909216919091179055565b6060600580546104ae906112ca565b60003381610744828661085c565b9050838110156107a45760405162461bcd60e51b815260206004820152602560248201527f45524332303a2064656372656173656420616c6c6f77616e63652062656c6f77604482015264207a65726f60d81b60648201526084016105f3565b6107b18286868403610a3c565b506001949350505050565b60006107c6610da8565b610606338484610ee6565b3360009081526008602052604081205460ff166108005760405162461bcd60e51b81526004016105f390611304565b61080a8383610ce7565b604080513381526001600160a01b03851660208201529081018390527f4e33d941db7df3810403bd6d2d1817159477ba1a2ce3643f3a1b9678c49830a89060600160405180910390a150600192915050565b6001600160a01b03918216600090815260026020908152604080832093909416825291909152205490565b61088f610b61565b6001600160a01b038116600081815260076020908152604091829020805460ff1916905590519182527fd7e9ec6e6ecd65492dce6bf513cd6867560d49544421d0783ddf06e76c24470c91016105a3565b6108e8610b61565b6001600160a01b03811661094d5760405162461bcd60e51b815260206004820152602660248201527f4f776e61626c653a206e6577206f776e657220697320746865207a65726f206160448201526564647265737360d01b60648201526084016105f3565b61095681610e96565b50565b610961610b61565b6001600160a01b03811660009081526007602052604090205460ff166109bc5760405162461bcd60e51b815260206004820152601060248201526f139bdd081a5b88189b1858dadb1a5cdd60821b60448201526064016105f3565b6001600160a01b0381166000908152600160205260409020546109df8282610bbb565b80600960008282546109f19190611364565b9091555050604080516001600160a01b0384168152602081018390527f61e6e66b0d6339b2980aecc6ccc0039736791f0ccde9ed512e789a7fbdd698c6910160405180910390a15050565b6001600160a01b038316610a9e5760405162461bcd60e51b8152602060048201526024808201527f45524332303a20617070726f76652066726f6d20746865207a65726f206164646044820152637265737360e01b60648201526084016105f3565b6001600160a01b038216610aff5760405162461bcd60e51b815260206004820152602260248201527f45524332303a20617070726f766520746f20746865207a65726f206164647265604482015261737360f01b60648201526084016105f3565b6001600160a01b0383811660008181526002602090815260408083209487168084529482529182902085905590518481527f8c5be1e5ebec7d5bd14f71427d1e84f3dd0314c0f7b2291e5b200ac8c7c3b92591015b60405180910390a3505050565b6000546001600160a01b031633146106a55760405162461bcd60e51b815260206004820181905260248201527f4f776e61626c653a2063616c6c6572206973206e6f7420746865206f776e657260448201526064016105f3565b6001600160a01b038216610c1b5760405162461bcd60e51b815260206004820152602160248201527f45524332303a206275726e2066726f6d20746865207a65726f206164647265736044820152607360f81b60648201526084016105f3565b6001600160a01b03821660009081526001602052604090205481811015610c8f5760405162461bcd60e51b815260206004820152602260248201527f45524332303a206275726e20616d6f756e7420657863656564732062616c616e604482015261636560f01b60648201526084016105f3565b6001600160a01b03831660008181526001602090815260408083208686039055600380548790039055518581529192917fddf252ad1be2c89b69c2b068fc378daa952ba7f163c4a11628f55a4df523b3ef9101610b54565b6001600160a01b038216610d3d5760405162461bcd60e51b815260206004820152601f60248201527f45524332303a206d696e7420746f20746865207a65726f20616464726573730060448201526064016105f3565b8060036000828254610d4f9190611351565b90915550506001600160a01b0382166000818152600160209081526040808320805486019055518481527fddf252ad1be2c89b69c2b068fc378daa952ba7f163c4a11628f55a4df523b3ef910160405180910390a35050565b60065460ff16156106a55760405162461bcd60e51b815260206004820152601060248201526f14185d5cd8589b194e881c185d5cd95960821b60448201526064016105f3565b600033610dfc858285611093565b6107b1858585610ee6565b610e0f611107565b6006805460ff191690557f5db9ee0a495bf2e6ff9c91a7834c1ba4fdd244a5e8aa4e537bd38aeae4b073aa335b6040516001600160a01b03909116815260200160405180910390a1565b610e61610da8565b6006805460ff191660011790557f62e78cea01bee320cd4e420270b5ea74000d11b0c9f74754ebdbfc544b05a258610e3c3390565b600080546001600160a01b038381166001600160a01b0319831681178455604051919092169283917f8be0079c531659141344cd1fd0a4f28419497f9722a3daafe3b4186f6b6457e09190a35050565b6001600160a01b038316610f4a5760405162461bcd60e51b815260206004820152602560248201527f45524332303a207472616e736665722066726f6d20746865207a65726f206164604482015264647265737360d81b60648201526084016105f3565b6001600160a01b038216610fac5760405162461bcd60e51b815260206004820152602360248201527f45524332303a207472616e7366657220746f20746865207a65726f206164647260448201526265737360e81b60648201526084016105f3565b6001600160a01b038316600090815260016020526040902054818110156110245760405162461bcd60e51b815260206004820152602660248201527f45524332303a207472616e7366657220616d6f756e7420657863656564732062604482015265616c616e636560d01b60648201526084016105f3565b6001600160a01b0380851660008181526001602052604080822086860390559286168082529083902080548601905591517fddf252ad1be2c89b69c2b068fc378daa952ba7f163c4a11628f55a4df523b3ef906110849086815260200190565b60405180910390a35b50505050565b600061109f848461085c565b9050600019811461108d57818110156110fa5760405162461bcd60e51b815260206004820152601d60248201527f45524332303a20696e73756666696369656e7420616c6c6f77616e636500000060448201526064016105f3565b61108d8484848403610a3c565b60065460ff166106a55760405162461bcd60e51b815260206004820152601460248201527314185d5cd8589b194e881b9bdd081c185d5cd95960621b60448201526064016105f3565b600060208083528351808285015260005b8181101561117d57858101830151858201604001528201611161565b506000604082860101526040601f19601f8301168501019250505092915050565b80356001600160a01b03811681146111b557600080fd5b919050565b600080604083850312156111cd57600080fd5b6111d68361119e565b946020939093013593505050565b6000602082840312156111f657600080fd5b6111ff8261119e565b9392505050565b60008060006060848603121561121b57600080fd5b6112248461119e565b92506112326020850161119e565b9150604084013590509250925092565b6000806040838503121561125557600080fd5b61125e8361119e565b91506020830135801515811461127357600080fd5b809150509250929050565b60006020828403121561129057600080fd5b5035919050565b600080604083850312156112aa57600080fd5b6112b38361119e565b91506112c16020840161119e565b90509250929050565b600181811c908216806112de57607f821691505b6020821081036112fe57634e487b7160e01b600052602260045260246000fd5b50919050565b60208082526019908201527f596f75277265206e6f742074686520436f6e74726f6c6c657200000000000000604082015260600190565b634e487b7160e01b600052601160045260246000fd5b808201808211156105455761054561133b565b818103818111156105455761054561133b56fea264697066735822122051e2ff9f4dd748ebda4ab235845d84723027cc6f9ad23901a50e312e2ab3ddb064736f6c63430008130033",
    "linkReferences": {}
  },
  "methodIdentifiers": {
    "ApproveByInterface(address,address,uint256)": "2517de1c",
    "CommitToMainnet(uint256)": "c8d683bf",
    "Pause()": "6985a022",
    "UnPause()": "438cd2d3",
    "VNDTController()": "895da949",
    "addBlackList(address)": "0ecb93c0",
    "allowance(address,address)": "dd62ed3e",
    "approve(address,uint256)": "095ea7b3",
    "balanceOf(address)": "70a08231",
    "burnByOwner(address,uint256)": "111a18d3",
    "controllers(address)": "da8c229e",
    "decimals()": "313ce567",
    "decreaseAllowance(address,uint256)": "a457c2d7",
    "destroyBlackFunds(address)": "f3bdc228",
    "editController(address,bool)": "5ad17da9",
    "getBlackListStatus(address)": "59bf1abe",
    "increaseAllowance(address,uint256)": "39509351",
    "isBlackListed(address)": "e47d6060",
    "mintByController(address,uint256)": "c68990ad",
    "mintToAddress(address,uint256)": "21ca4236",
    "name()": "06fdde03",
    "owner()": "8da5cb5b",
    "paused()": "5c975abb",
    "receiverAddress()": "16fed3e2",
    "removeBlackList(address)": "e4997dc5",
    "renounceOwnership()": "715018a6",
    "setReceiverAddress(address)": "8279c7db",
    "symbol()": "95d89b41",
    "totalSupply()": "18160ddd",
    "transfer(address,uint256)": "a9059cbb",
    "transferFrom(address,address,uint256)": "23b872dd",
    "transferOwnership(address)": "f2fde38b"
  },
  "id": 35
}